:020000040800F2
:1000000000000220DD260008C1240008C9240008E1
:10001000D1240008D9240008E124000800000000D1
:10002000000000000000000000000000E9240008BB
:10003000F72400080000000005250008132500082B
:100040002D2700082D2700082D2700082D27000840
:100050002D2700082D2700082D2700082D27000830
:100060002D2700082D2700082D2700082D27000820
:100070002D2700082D2700082D2700082D27000810
:100080002D2700082D2700082D2700082D27000800
:100090002D2700082D2700082D2700081F25000800
:1000A0002D2700082D2700082D2700082D270008E0
:1000B0002D2700082D2700082D2700082D270008D0
:1000C0002D2700082D2700082D2700082D270008C0
:1000D0002D2700082D2700082D2700082D270008B0
:1000E0002D2700082D2700082D2700082D270008A0
:1000F0002D2700082D2700082D2700082D27000890
:100100002D2700082D2700082D2700082D2700087F
:100110002D2700082D2700082D2700082D2700086F
:100120002D2700082D2700082D2700082D2700085F
:100130002D27000800000000000000002D27000807
:100140002D2700082D2700082D2700082D2700083F
:100150002D2700082D2700082D2700082D2700082F
:100160002D2700082D2700082D2700082D2700081F
:100170002D2700082D2700082D270008000000006B
:10018000000000002D270008000000000000000013
:100190002D27000800000000000000002D270008A7
:1001A0000000000000000000000000002D270008F3
:1001B0002D2700082D2700082D2700082D270008CF
:0401C0002D270008DF
:1001D00010B5054C237833B9044B13B10448AFF381
:1001E00000800123237010BDF401002000000000F6
:1001F000AC8F000808B5034B1BB103490348AFF3AC
:10020000008008BD00000000F8010020AC8F00084D
:1002100001F0FF01102A2BDB10F0070F08D010F8B7
:10022000013B013A8B422DD010F0070F42B3F6D1BB
:10023000F0B441EA012141EA014122F007047FF0D4
:1002400000070023F0E80256083C85EA010586EA2B
:10025000010685FA47F5A3FA87F586FA47F6A5FA67
:1002600087F68EB9EED1F0BC01F0FF0102F0070273
:1002700032B110F8013B013A83EA010313B1F8D11E
:100280000020704701387047002D06BF35460338FF
:10029000073815F0010F07D1013015F4807F02BF38
:1002A000013015F4C03F0130F0BC0138704700BF89
:1002B000034613F8012B002AFBD1181A01387047A6
:1002C00081F0004102E000BF83F0004330B54FEA07
:1002D00041044FEA430594EA050F08BF90EA020F74
:1002E0001FBF54EA000C55EA020C7FEA645C7FEA07
:1002F000655C00F0E2804FEA5454D4EB5555B8BF2A
:100300006D420CDD2C4480EA020281EA030382EA9A
:10031000000083EA010180EA020281EA0303362D2C
:1003200088BF30BD11F0004F4FEA01314FF4801CFF
:100330004CEA113102D0404261EB410113F0004F11
:100340004FEA03334CEA133302D0524263EB4303C8
:1003500094EA050F00F0A780A4F10104D5F1200E66
:100360000DDB02FA0EFC22FA05F2801841F10001C1
:1003700003FA0EF2801843FA05F359410EE0A5F195
:1003800020050EF1200E012A03FA0EFC28BF4CF0C6
:10039000020C43FA05F3C01851EBE37101F000457C
:1003A00007D54FF0000EDCF1000C7EEB00006EEB89
:1003B0000101B1F5801F1BD3B1F5001F0CD3490813
:1003C0005FEA30004FEA3C0C04F101044FEA44526A
:1003D00012F5800F80F09A80BCF1004F08BF5FEAF1
:1003E000500C50F1000041EB045141EA050130BDD1
:1003F0005FEA4C0C404141EB0101013C28BFB1F5E3
:10040000801FE9D291F0000F04BF01460020B1FA2D
:1004100081F308BF2033A3F10B03B3F120020CDA00
:100420000C3208DD02F1140CC2F10C0201FA0CF0DE
:1004300021FA02F10CE002F11402D8BFC2F1200C43
:1004400001FA02F120FA0CFCDCBF41EA0C019040F9
:10045000E41AA2BF01EB0451294330BD6FEA040442
:100460001F3C1CDA0C340EDC04F11404C4F120022D
:1004700020FA04F001FA02F340EA030021FA04F33F
:1004800045EA030130BDC4F10C04C4F1200220FA96
:1004900002F001FA04F340EA0300294630BD21FAD4
:1004A00004F0294630BD94F0000F83F4801306BF9A
:1004B00081F480110134013D4EE77FEA645C18BF8E
:1004C0007FEA655C29D094EA050F08BF90EA020F25
:1004D00005D054EA000C04BF1946104630BD91EA1D
:1004E000030F1EBF0021002030BD5FEA545C05D120
:1004F0004000494128BF41F0004130BD14F580045F
:100500003CBF01F5801130BD01F0004545F0FE41D2
:1005100041F470014FF0000030BD7FEA645C1ABF07
:10052000194610467FEA655C1CBF0B46024650EA3E
:10053000013406BF52EA033591EA030F41F400216A
:1005400030BD00BF90F0000F04BF0021704730B5F0
:100550004FF4806404F132044FF000054FF00001C5
:1005600050E700BF90F0000F04BF0021704730B586
:100570004FF4806404F1320410F0004548BF40425B
:100580004FF000013EE700BF42004FEAE2014FEAB0
:1005900031014FEA02701FBF12F07F4393F07F4F8B
:1005A00081F06051704732F07F4208BF704793F08E
:1005B0007F4F04BF41F40021704730B54FF46074A1
:1005C00001F0004521F000411CE700BF50EA0102A4
:1005D00008BF704730B54FF000050AE050EA01024D
:1005E00008BF704730B511F0004502D5404261EBBD
:1005F00041014FF4806404F132045FEA915C3FF4FE
:10060000D8AE4FF003025FEADC0C18BF03325FEA9A
:10061000DC0C18BF033202EBDC02C2F1200300FA4B
:1006200003FC20FA02F001FA03FE40EA0E0021FA70
:1006300002F11444BDE600BF70B54FF0FF0C4CF45E
:10064000E06C1CEA11541DBF1CEA135594EA0C0F10
:1006500095EA0C0F00F0DEF82C4481EA030621EA4B
:100660004C5123EA4C5350EA013518BF52EA033586
:1006700041F4801143F4801338D0A0FB02CE4FF038
:100680000005E1FB02E506F00042E0FB03E54FF068
:100690000006E1FB03569CF0000F18BF4EF0010E60
:1006A000A4F1FF04B6F5007F64F5407404D25FEA5C
:1006B0004E0E6D4146EB060642EAC62141EA55510F
:1006C0004FEAC52040EA5E504FEACE2EB4F1FD0C51
:1006D00088BFBCF5E06F1ED8BEF1004F08BF5FEACF
:1006E000500E50F1000041EB045170BD06F0004681
:1006F00046EA010140EA020081EA0301B4EB5C042E
:10070000C2BFD4EB0C0541EA045170BD41F4801125
:100710004FF0000E013C00F3AB8014F1360FDEBF4A
:10072000002001F0004170BDC4F10004203C35DA26
:100730000C341BDC04F11404C4F1200500FA05F3A9
:1007400020FA04F001FA05F240EA020001F000424A
:1007500021F0004110EBD37021FA04F642EB0601C0
:100760005EEA430E08BF20EAD37070BDC4F10C04EA
:10077000C4F1200500FA04F320FA05F001FA04F2AE
:1007800040EA020001F0004110EBD37041F100019A
:100790005EEA430E08BF20EAD37070BDC4F12005A5
:1007A00000FA05F24EEA020E20FA04F301FA05F20D
:1007B00043EA020321FA04F001F0004121FA04F2B5
:1007C00020EA020000EBD3705EEA430E08BF20EA85
:1007D000D37070BD94F0000F0FD101F000464000BF
:1007E00041EB010111F4801F08BF013CF7D041EA41
:1007F000060195F0000F18BF704703F00046520045
:1008000043EB030313F4801F08BF013DF7D043EA15
:100810000603704794EA0C0F0CEA135518BF95EACB
:100820000C0F0CD050EA410618BF52EA4306D1D152
:1008300081EA030101F000414FF0000070BD50EA71
:10084000410606BF1046194652EA430619D094EAFB
:100850000C0F02D150EA013613D195EA0C0F05D1E5
:1008600052EA03361CBF104619460AD181EA030139
:1008700001F0004141F0FE4141F470014FF00000F1
:1008800070BD41F0FE4141F4780170BD70B54FF08C
:10089000FF0C4CF4E06C1CEA11541DBF1CEA13550C
:1008A00094EA0C0F95EA0C0F00F0A7F8A4EB0504EE
:1008B00081EA030E52EA03354FEA013100F08880E5
:1008C0004FEA03334FF0805545EA131343EA1263AE
:1008D0004FEA022245EA111545EA10654FEA002663
:1008E0000EF000419D4208BF964244F1FD0404F51C
:1008F000407402D25B084FEA3202B61A65EB030578
:100900005B084FEA32024FF480104FF4002CB6EB34
:10091000020E75EB030E22BFB61A754640EA0C00B4
:100920005B084FEA3202B6EB020E75EB030E22BFF4
:10093000B61A754640EA5C005B084FEA3202B6EB35
:10094000020E75EB030E22BFB61A754640EA9C00F4
:100950005B084FEA3202B6EB020E75EB030E22BFC4
:10096000B61A754640EADC0055EA060E18D04FEA82
:10097000051545EA16754FEA06164FEAC30343EA22
:1009800052734FEAC2025FEA1C1CC0D111F4801FEF
:100990000BD141EA00014FF000004FF0004CB6E7E8
:1009A00011F4801F04BF01430020B4F1FD0C88BF87
:1009B000BCF5E06F3FF6AFAEB5EB030C04BFB6EB92
:1009C000020C5FEA500C50F1000041EB045170BD85
:1009D0000EF0004E4EEA113114EB5C04C2BFD4EBB2
:1009E0000C0541EA045170BD41F480114FF0000E36
:1009F000013C90E645EA060E8DE60CEA135594EAB2
:100A00000C0F08BF95EA0C0F3FF43BAF94EA0C0FB4
:100A10000AD150EA01347FF434AF95EA0C0F7FF429
:100A200025AF104619462CE795EA0C0F06D152EA7D
:100A300003353FF4FDAE1046194622E750EA410661
:100A400018BF52EA43067FF4C5AE50EA41047FF472
:100A50000DAF52EA43057FF4EBAE12E74FF0FF3CD7
:100A600006E000BF4FF0010C02E000BF4FF0010CA8
:100A70004DF804CD4FEA410C7FEA6C5C4FEA430C21
:100A800018BF7FEA6C5C1BD001B050EA410C0CBF70
:100A900052EA430C91EA030F02BF90EA020F0020D2
:100AA000704710F1000F91EA030F58BF994208BF39
:100AB00090422CBFD8176FEAE37040F001007047F6
:100AC0004FEA410C7FEA6C5C02D150EA013C07D14D
:100AD0004FEA430C7FEA6C5CD6D152EA033CD3D098
:100AE0005DF8040B704700BF8446104662468C4692
:100AF0001946634600E000BF01B5FFF7B7FF0028C5
:100B000048BF10F1000F01BD4DF808EDFFF7F4FFED
:100B10000CBF012000205DF808FB00BF4DF808ED78
:100B2000FFF7EAFF34BF012000205DF808FB00BF9B
:100B30004DF808EDFFF7E0FF94BF012000205DF8BD
:100B400008FB00BF4DF808EDFFF7CEFF94BF012072
:100B500000205DF808FB00BF4DF808EDFFF7C4FF6B
:100B600034BF012000205DF808FB00BF4FEA410CB4
:100B70007FEA6C5C02D150EA013C0AD14FEA430C97
:100B80007FEA6C5C02D152EA033C02D14FF00000D4
:100B900070474FF0010070474FEA410212F5001212
:100BA00015D211D56FF47873B3EB625212D94FEAB4
:100BB000C12343F0004343EA505311F0004F23FA9E
:100BC00002F018BF404270474FF00000704750EAF3
:100BD000013005D111F0004008BF6FF000407047B0
:100BE0004FF00000704700BF53B94AB9002908BF51
:100BF00000281CBF4FF0FF314FF0FF3000F088B9E4
:100C0000ADF1080C6DE904CE00F006F8DDF804E063
:100C1000DDE9022304B070472DE9F047089D0F4637
:100C200004468C46002B48D18A42164661D9B2FA56
:100C300082F34BB1C3F1200201FA03FC20FA02F265
:100C40009E4042EA0C0C9C404FEA164EB7B2BCFBE9
:100C5000FEF1220C0EFB11CC42EA0C4201FB07F024
:100C6000904209D9B21801F1FF3C80F0EE80904229
:100C700040F2EB8002393244121AA4B2B2FBFEF009
:100C80000EFB102244EA024400FB07F7A74209D9F1
:100C9000341900F1FF3280F0DA80A74240F2D780A9
:100CA0003444023840EA0140E41B00211DB1DC401D
:100CB0000023C5E90043BDE8F0878B4206D90DB19A
:100CC000C5E9000100210846BDE8F087B3FA83F1C9
:100CD000002948D1BB4202D3824200F20781841A24
:100CE00067EB030201209446002DE4D0C5E9004CD7
:100CF000E1E7002A00F09280B2FA82F3002B40F084
:100D0000A8808A1A4FEA164E1FFA86FC0121200C91
:100D1000B2FBFEF70EFB172240EA02420CFB07F083
:100D2000904207D9B21807F1FF3802D2904200F280
:100D3000E2804746121AA4B2B2FBFEF00EFB10226C
:100D400044EA02440CFB00FCA44507D9341900F125
:100D5000FF3202D2A44500F2CB801046A4EB0C0473
:100D600040EA0740A2E7C1F120068B4022FA06FCC8
:100D70004CEA030C07FA01F420FA06F3F7404FEAB5
:100D80001C49234300FA01F81FFA8CFEB7FBF9F067
:100D90001C0C09FB107744EA074400FB0EF7A7423E
:100DA00002FA01F20AD91CEB040400F1FF3A80F0C8
:100DB0009B80A74240F2988002386444E41B9FB2B3
:100DC000B4FBF9F309FB134447EA044403FB0EFEAA
:100DD000A64509D91CEB040403F1FF3780F082809B
:100DE000A6457FD9023B644443EA0040A4EB0E04CD
:100DF000A0FB02E7BC427346B94663D360D05DB145
:100E0000B8EB030264EB090404FA06F622FA01F3D4
:100E10001E43CC40C5E9006400214CE76208480845
:100E200042EAC1710B0C43EA00438AB242EA034230
:100E3000B3FBF6F1E407B4463746B6461F23B0FBD2
:100E4000F6F0D21B41EA004161E7614614E7104623
:100E500028E7C3F1200120FA01F29E4027FA01F1B0
:100E60009F403A434FEA164E1FFA86FCB1FBFEF74D
:100E70000EFB1710110C41EA004107FB0CF88845E6
:100E800004FA03F43AD9711807F1FF3001D288450A
:100E90001FD8A1EB0801B1FBFEF808FB0CF70EFB15
:100EA000181192B242EA0142BA422FD2B21808F1A6
:100EB000FF31C6D2BA42C4D2A8F102013244C0E71F
:100EC000F0459CD2BEEB020367EB0C070138B94634
:100ED00095E7A6EB08084144B81EB1FBFEF808FBF5
:100EE0000CF7DCE73B467FE7504667E70846FBE642
:100EF0003444023832E7023F32441BE7A1EB0801D9
:100F00003846B1FBFEF808FB0CF7C8E7414698E706
:100F1000704700BF80B500AF3C21084804F0EEF8F0
:100F20003C21074804F0EAF8044B1B6800225A628F
:100F3000034B1B6800225A6200BF80BDAC02002038
:100F4000F402002080B483B000AF074B1B685B6ADB
:100F50007B60054B1B6800225A627B6818460C3781
:100F6000BD465DF8047B7047AC02002080B483B0BE
:100F700000AF084B1B685B6AFB80064B1B680022B6
:100F80005A62B7F9063018460C37BD465DF8047B47
:100F9000704700BFF402002080B400AF044B1B6810
:100FA00000225A6200BFBD465DF8047B704700BF57
:100FB000AC02002080B400AF044B1B6800225A62D0
:100FC00000BFBD465DF8047B704700BFF4020020FF
:100FD00080B582B000AF7860391D4FF0FF33012239
:100FE000034804F075FD7B6818460837BD4680BD90
:100FF0003C03002080B586B004AF01F099FB00F0FF
:1010000007F900F007FB00F0A3F900F031FA00F057
:1010100083FA00F0D5FA00F06DF900F069FB614841
:1010200005F09AFE4FF480715F4801F0BDFE034663
:1010300019465E4805F028FE4FF400715A4801F049
:10104000B3FE034619465A4805F01EFE64230322E8
:10105000D021584802F06EFB0346FB716423032243
:10106000D221544802F066FB0346BB71FB79194656
:10107000514805F009FEBB791946504805F004FEB9
:101080004F4805F069FEFF23BB7064230522D02181
:10109000484802F04FFB03467B7164230522D221AE
:1010A000444802F047FB03463B716423029301234B
:1010B0000193BB1C009301237522D0213D4802F00F
:1010C00007F90346FB7079793A79FB78B878009094
:1010D0003C4805F0D9FDFB78002B07D0354802F0DD
:1010E00057FC03461946384805F0CEFD00237B70B7
:1010F00064230293012301937B1C009301236B2241
:10110000D0212C4801F0EAFF304805F025FEFFF71A
:1011100001FF00F019FE2E4B1B6801332C4A1360AF
:101120002B4B1B68312B38DD294B00221A60294BD1
:101130001B681846FFF728FA02460B46264805F0BA
:10114000A3FD264B1B681846FFF71EFA02460B4606
:10115000234805F099FD234BB3F900301946224886
:1011600005F092FD214B1B681946214805F08CFDC6
:10117000204B1B681946204805F086FD1F4B1B6855
:1011800019461F4805F080FD1E4B1B6819461E4876
:1011900005F07AFD1D4805F0DFFD0A2001F03AFB5D
:1011A000B7E700BFC88F000800040240DC8F0008CA
:1011B000EC8F000810020020FC8F0008149000083B
:1011C0002C90000834900008549000087C9000088F
:1011D00090030020840300209090000888030020E2
:1011E000A09000089E030020B09000089403002007
:1011F000BC90000898030020C8900008B8030020A5
:10120000D4900008BC030020E0900008EC90000897
:1012100080B594B000AF07F11C03342200211846BA
:1012200005F078FE07F1080300221A605A609A6000
:10123000DA601A6100237B602C4B1B6C2B4A43F055
:1012400080531364294B1B6C03F080537B607B68D5
:1012500000233B60264B1B68254A43F44043136040
:10126000234B1B6803F440433B603B680123FB6155
:101270004FF4A0233B6202237B634FF48003BB63E4
:101280000423FB63B4233B6402237B640223BB641B
:101290000223FB6407F11C03184603F0D3FA03464C
:1012A000002B01D000F01EFA02F032FF0346002BA3
:1012B00001D000F017FA0F23BB600223FB6000236C
:1012C0003B614FF4A0537B614FF48053BB6107F146
:1012D00008030521184602F06BFF0346002B01D0DE
:1012E00000F000FA00BF5037BD4680BD0038024014
:1012F0000070004080B500AF124B134A1A60114BCA
:10130000124A5A600F4B00229A600E4B0022DA609C
:101310000C4B4FF480421A610A4B00225A61094B70
:1013200000229A61074B0022DA61064B00221A6202
:10133000044801F08FFD0346002B01D000F0D2F9E4
:1013400000BF80BD1002002000540040A0860100B4
:1013500080B592B000AF07F1400300221A605A60D6
:1013600007F1240300221A605A609A60DA601A6159
:101370005A619A613B1D20220021184605F0CAFDE2
:10138000394B3A4A1A60384B00225A60364B0022D9
:101390009A60354B44F24F62DA60334B00221A6197
:1013A000314B00225A61304B00229A612E4803F0E3
:1013B000E7FC0346002B01D000F094F900233B64C6
:1013C00000237B6407F140031946274804F062FAC2
:1013D0000346002B01D000F085F960237B6244F2C4
:1013E0005063BB620023FB6200233B6300237B63EB
:1013F0000023BB630023FB6307F12403002219468B
:10140000194803F009FF0346002B01D000F06AF9E8
:1014100007F124030C221946134803F0FDFE03468E
:10142000002B01D000F05EF900237B600023BB603D
:101430000023FB6000233B6100237B614FF40053DA
:10144000BB6100233B623B1D1946074804F09EFA2E
:101450000346002B01D000F045F9034800F0AEFF31
:1014600000BF4837BD4680BD640200200000014037
:1014700080B58CB000AF07F10C0324220021184680
:1014800005F048FD3B1D00221A605A60214B4FF0C9
:1014900080421A601F4B00225A601E4B00229A6045
:1014A0001C4B4FF0FF32DA601A4B00221A61194BC5
:1014B00000229A610323FB6000233B6101237B61CF
:1014C0000023BB610023FB6100233B6201237B629D
:1014D0000023BB620023FB6207F10C0319460D4891
:1014E00003F066FD0346002B01D000F0FBF800235B
:1014F0007B600023BB603B1D1946064804F0CAF917
:101500000346002B01D000F0EDF800BF3037BD4698
:1015100080BD00BFAC02002080B58CB000AF07F1E9
:101520000C0324220021184605F0F4FC3B1D002288
:101530001A605A60204B214A1A601F4B00225A60E1
:101540001D4B00229A601C4B4FF6FF72DA601A4B5B
:1015500000221A61184B00229A610323FB600023CA
:101560003B6101237B610023BB610023FB610023FE
:101570003B6201237B620023BB620023FB6207F115
:101580000C0319460C4803F013FD0346002B01D051
:1015900000F0A8F800237B600023BB603B1D1946C8
:1015A000054804F077F90346002B01D000F09AF8C3
:1015B00000BF3037BD4680BDF40200200008004067
:1015C00080B500AF114B124A1A60104B4FF4E13254
:1015D0005A600E4B00229A600C4B0022DA600B4BD3
:1015E00000221A61094B0C225A61084B00229A61B1
:1015F000064B0022DA61054804F01AFA0346002B74
:1016000001D000F06FF800BF80BD00BF3C03002098
:101610000044004080B588B000AF07F10C03002201
:101620001A605A609A60DA601A610023BB602B4B23
:101630001B6B2A4A43F080031363284B1B6B03F098
:101640008003BB60BB6800237B60244B1B6B234A79
:1016500043F001031363214B1B6B03F001037B6019
:101660007B6800233B601D4B1B6B1C4A43F002034D
:1016700013631A4B1B6B03F002033B603B680022B1
:101680004FF47041164801F0A7FB4FF47043FB6024
:1016900001233B6100237B610023BB6107F10C0345
:1016A00019460F4801F0ECF92023FB604FF40413B6
:1016B0003B6101237B6107F10C031946084801F0E7
:1016C000DFF900220021172001F0A3F9172001F013
:1016D000BCF900BF2037BD4680BD00BF00380240C6
:1016E0000004024080B400AF72B600BF00BFFDE747
:1016F00080B500AF00F012FD00F072F800BF80BDB1
:1017000080B582B000AF0346FB8001224FF4005148
:10171000084801F061FB00224FF48051054801F0B8
:101720005BFBFB88184600F00FFD00BF0837BD4685
:1017300080BD00BF0004024080B582B000AF034608
:10174000FB8000224FF40051084801F045FB0122C4
:101750004FF48051054801F03FFBFB88184600F02C
:10176000F3FC00BF0837BD4680BD00BF0004024047
:1017700080B582B000AF0346FB8001224FF4804168
:10178000084801F029FB00224FF40041054801F010
:1017900023FBFB88184600F0EDFC00BF0837BD4670
:1017A00080BD00BF0004024080B582B000AF034698
:1017B000FB8000224FF48041084801F00DFB01221C
:1017C0004FF40041054801F007FBFB88184600F084
:1017D000D1FC00BF0837BD4680BD00BF00040240F9
:1017E00080B500AF00224FF400510E4801F0F4FA2A
:1017F00000224FF480510B4801F0EEFA00224FF422
:101800008041084801F0E8FA00224FF40041054801
:1018100001F0E2FA002000F097FC002000F0AAFCA2
:1018200000BF80BD0004024080B588B004AF03460D
:10183000FB71FB799AB2642302930223019307F1AF
:101840000C0300930123D021094801F041FD034618
:10185000002B01D0002307E03B7B1BB21B021AB216
:101860007B7B1BB213431BB218461037BD4680BDAD
:101870001002002080B584B000AFF860B9607A60D3
:101880003B603B20FFF7D0FF03461A46FB681A80F7
:101890003D20FFF7C9FF03461A46BB681A803F2068
:1018A000FFF7C2FF03461A467B681A804320FFF702
:1018B000BBFF03461A463B681A804520FFF7B4FF7A
:1018C00003461A46BB691A804720FFF7ADFF03465F
:1018D0001A46FB691A8000BF1037BD4680BD000064
:1018E00080B52DED028B8AB002AF00F087FFF86162
:1018F000554B1B68002B0CD0534B1B68FA69D31A4D
:1019000007EE903AF8EE677A9FED507A67EE877AA5
:1019100001E0DFED4F7AC7ED067A4B4AFB691360B1
:101920004C4B01934C4B00934C4B4D4A4D494E4808
:10193000FFF7A0FF4C4BB3F9003007EE903AB8EE3A
:10194000E77ADFED4A6AC7EE267AC7ED057A454B9E
:10195000B3F9003007EE903AB8EEE77ADFED436A6C
:10196000C7EE267AC7ED047A3D4BB3F9003007EE97
:10197000903AB8EEE77ADFED3D6AC7EE267AC7ED1A
:10198000037AD7ED057AB1EE678AD7ED047A27EEB0
:10199000A77AD7ED037A67EEA77A77EE277AB0EECB
:1019A000670A07F05DF9F0EE407AF0EE670AB0EEF4
:1019B000480A07F053F9F0EE407A9FED2D7A67EE72
:1019C000877AC7ED027A244BB3F9003007EE903ADC
:1019D000B8EEE77ADFED276AC7EE267AC7ED017A1F
:1019E00097ED017AD7ED067A27EE277A224BD3EDD1
:1019F000007A77EE277A9FED217A27EE877AD7ED66
:101A0000027ADFED1F6A67EEA67A77EE277A1A4B25
:101A1000C3ED007AD7ED030A97ED040A07F01EF92B
:101A2000F0EE407A9FED127A67EE877A154BC3EDA0
:101A3000007A154B4FF000021A6000BF2037BD46F8
:101A4000BDEC028B80BD00BFCC0300206F12833A37
:101A50000AD7233CA00300209E0300209C03002003
:101A6000A6030020A4030020A2030020000080465B
:101A7000E12E6542000003438403002048E17A3FE1
:101A80000AD7A33C880300208C03002080B483B0D5
:101A900000AF786039607B681B6844F24F62934204
:101AA00003DD7B6844F24F621A607B681B680F4A53
:101AB000934202DA7B680D4A1A603B681B6844F265
:101AC0004F62934203DD3B6844F24F621A603B6809
:101AD0001B68064A934202DA3B68044A1A6000BF58
:101AE0000C37BD465DF8047B704700BFB1B9FFFFFE
:101AF00080B483B000AF78607B6818460C37BD4671
:101B00005DF8047B704780B582B000AF78603960C3
:101B10007868FFF7EDFF78603868FFF7E9FF386015
:101B20007B68002B05DD7B689BB21846FFF7E8FD5C
:101B300009E07B68002B06DA7B689BB25B429BB2B4
:101B40001846FFF7F9FD3B68002B05DD3B689BB2AB
:101B50001846FFF70DFE09E03B68002B06DA3B68EC
:101B60009BB25B429BB21846FFF71EFE7B68002BC0
:101B700004D13B68002B01D1FFF732FE00BF0837CC
:101B8000BD4680BD80B485B000AF87ED030AC7EDC8
:101B9000020A87ED011A97ED027AD7ED037A37EE44
:101BA000677A0C4BD3ED007A27EE277A0A4BD3EDF8
:101BB000006AD7ED017A66EEA77A77EE277AFDEE16
:101BC000E77A17EE903A18461437BD465DF8047B65
:101BD000704700BF040000200800002080B489B0D6
:101BE00000AFF860B9607A603B4B93ED007ADFEDAF
:101BF0003B6AC7EE267A3A4BC3ED007ABA687B6837
:101C00001A44FB68D31AFB61364BD3ED007AB7EE6A
:101C1000007A37EE677AFB6907EE903AF8EEE77ADA
:101C200027EE277A304B1B6807EE903AF8EEE76A0A
:101C30002C4BD3ED007A66EEA77A77EE277AFDEE8D
:101C4000E77A17EE903ABB61274ABB691360274BCE
:101C50001A68BB691344254A1360244B1B6844F679
:101C60002062934203DD214B44F620621A601F4B31
:101C70001B681F4A934202DA1C4B1D4A1A601D4B17
:101C80001B78012B05D1194B00221A60194B002239
:101C90001A70BB6907EE903AB8EEE77A0E4BD3EDB7
:101CA000007A27EE277A114B1B6807EE903AF8EE80
:101CB000E76A0B4BD3ED007A66EEA77A77EE277AC8
:101CC000FDEEE77A17EE903A7B617B691846243780
:101CD000BD465DF8047B70470C00002000004843BF
:101CE000100000201C000020D0030020D40300209E
:101CF000E0B1FFFFC803002080B483B000AF87EDE0
:101D0000010A38603B6807EE903AB8EEE77A0C4B70
:101D1000D3ED007A27EE277A0A4BD3ED006AD7ED90
:101D2000017A66EEA77A77EE277AFDEEE77A17EE6C
:101D3000903A18460C37BD465DF8047B704700BFEB
:101D4000140000201800002080B584B000AF00F01F
:101D500055FDB8604B4B1B78002B05D14A4ABB6838
:101D60001360484B01221A70484B1B78022B31D06C
:101D7000022B44DC002B02D0012B15D03FE0444B5A
:101D8000444A1A60444B00221A603F4B1B68BA68F1
:101D9000D31A40F2DB52934247D93C4B01221A70CE
:101DA000394ABB68136040E0394B4FF000021A60BB
:101DB000394B00221A60344B1B68BA68D31A40F2C0
:101DC000DB52934233D9314B02221A702E4ABB6840
:101DD00013602CE02E4B314A1A602F4B00221A6000
:101DE000294B1B68BA68D31A40F2DB52934220D9C0
:101DF000264B03221A70244ABB68136019E0244B57
:101E00004FF000021A60244B00221A601E4B1B6820
:101E1000BA68D31A40F2DB5293420CD91B4B002212
:101E20001A70194ABB68136005E000BF04E000BFE8
:101E300002E000BF00E000BF194B93ED007A144BA5
:101E4000D3ED007AB4EEE77AF1EE10FA2CD5144B0C
:101E5000D3ED007A9FED137A77EE877A104BC3EDBE
:101E6000007A0F4B93ED007A094BD3ED007AB4EE74
:101E7000E77AF1EE10FA3BDD054B1B68084A136068
:101E800036E000BFD8030020DC030020E003002080
:101E9000C403002000002041B4030020000020C142
:101EA000C0030020CDCCCC3D7C4B93ED007A7C4B25
:101EB000D3ED007AB4EEE77AF1EE10FA18DD774B45
:101EC000D3ED007A9FED777A77EEC77A734BC3ED47
:101ED000007A724B93ED007A714BD3ED007AB4EE39
:101EE000E77AF1EE10FA03D56D4B1B686B4A13606D
:101EF000FFF728F803466C4A1360FFF737F80346EC
:101F00005B426A4A1360FFF747F8FFF753F8FFF7A1
:101F1000E7FC674BB3F9003007EE903AB8EEE77A8A
:101F2000DFED646AC7EE267AC7ED017A624BB3F93A
:101F3000003007EE903AB8EEE77ADFED5E6AC7EE62
:101F4000267AC7ED007A5D4B1B780133DAB25B4B22
:101F50001A705A4B1B78012B13D9584B00221A7058
:101F60004E4BD3ED007AFDEEE77A4F4B1B684F4A9C
:101F70001268194617EE900AFFF730FE0346504AE2
:101F800013604F4B1B6807EE903AF8EEE77A9FED2F
:101F90004D7A27EE877A4C4BD3ED007A77EE277A8D
:101FA000C7ED037A484BD3ED007AB1EE047A77EEB1
:101FB000877A97ED037AB4EEE77AF1EE10FA08DD4E
:101FC000414BD3ED007AB1EE047A77EE877AC7ED14
:101FD000037A3D4BD3ED007AB1EE047A77EEC77AFF
:101FE00097ED037AB4EEE77AF1EE10FA08D5364BA6
:101FF000D3ED007AB1EE047A77EEC77AC7ED037AB3
:10200000324BD3ED007A97ED011AF0EE670A97EDA7
:10201000030AFFF7B7FD03462D4A13602D4B1B68DB
:10202000184697ED000AFFF767FE03462A4A136039
:10203000274B1A68284B1B68D31A284A1360244B75
:102040001A68254B1B681344254A1360244923480A
:10205000FFF71CFD1D4BD3ED007AF0EEE77A9FED04
:10206000217AF4EEC77AF1EE10FA0BDDFFF7B8FB38
:102070001D4B01221A70194B00221A60184B0022C6
:102080001A6007E0154B1B68154A1268114618467E
:10209000FFF739FD00BF1037BD4680BDC0030020EB
:1020A000C4030020CDCCCC3D940300209803002035
:1020B0009E03002000000343A0030020E103002052
:1020C000AC0300200AD7A33B0000002084030020BB
:1020D000A8030020B4030020B0030020B8030020B0
:1020E000BC03002000002042C803002080B485B05B
:1020F00000AF0346FB80084B1B68DB6AFB60FB8874
:10210000FA689A4201D2FB68FB80FB8818461437B4
:10211000BD465DF8047B70476402002080B500AFC7
:102120000021084802F07CFE0C21064802F078FEEF
:10213000044B1B6800225A63024B1B6800221A647E
:1021400000BF80BD6402002080B582B000AF0346AE
:10215000FB80FB881846FFF7C9FF0346FB80044B52
:102160001B68FA881A6400BF0837BD4680BD00BFEF
:102170006402002080B582B000AF0346FB80FB887C
:102180001846FFF7B3FF0346FB80044B1B68FA8831
:102190005A6300BF0837BD4680BD00BF64020020FF
:1021A00080B483B000AF00237B60104B5B6C0F4AA0
:1021B00043F4804353640D4B5B6C03F480437B60BA
:1021C0007B6800233B60094B1B6C084A43F080533B
:1021D0001364064B1B6C03F080533B603B6800BFED
:1021E0000C37BD465DF8047B704700BF00380240E5
:1021F00080B58AB000AF786007F1140300221A603E
:102200005A609A60DA601A617B681B68194A9342C7
:102210002CD100233B61184B1B6B174A43F0020380
:102220001363154B1B6B03F002033B613B694FF4D7
:1022300040737B611223BB610123FB6103233B627B
:1022400004237B6207F1140319460C4800F018FCC4
:102250000023FB60084B1B6C074A43F40013136414
:10226000054B1B6C03F40013FB60FB6800BF2837B1
:10227000BD4680BD005400400038024000040240CA
:1022800080B485B000AF78607B681B680B4A9342CE
:102290000DD10023FB600A4B5B6C094A43F001033C
:1022A0005364074B5B6C03F00103FB60FB6800BFEA
:1022B0001437BD465DF8047B704700BF0000014045
:1022C0000038024080B58CB000AF786007F11C0385
:1022D00000221A605A609A60DA601A617B681B6893
:1022E000B3F1804F2CD10023BB61304B1B6C2F4AC4
:1022F00043F0010313642D4B1B6C03F00103BB611E
:10230000BB6900237B61294B1B6B284A43F0010307
:102310001363264B1B6B03F001037B617B69032373
:10232000FB6102233B6200237B620023BB6201232B
:10233000FB6207F11C0319461D4800F0A1FB30E0C9
:102340007B681B681B4A93422BD100233B61174BD0
:102350001B6C164A43F004031364144B1B6C03F00C
:1023600004033B613B690023FB60104B1B6B0F4A6E
:1023700043F0020313630D4B1B6B03F00203FB607E
:10238000FB68C023FB6102233B6200237B620023C6
:10239000BB620223FB6207F11C031946064800F0EA
:1023A0006FFB00BF3037BD4680BD00BF0038024024
:1023B00000000240000800400004024080B588B0E0
:1023C00000AF786007F10C0300221A605A609A602F
:1023D000DA601A617B681B68124A93421ED100239F
:1023E000BB60114B1B6B104A43F0010313630E4B90
:1023F0001B6B03F00103BB60BB684FF41063FB6011
:1024000002233B6100237B610023BB610123FB614D
:1024100007F10C031946054800F032FB00BF2037D6
:10242000BD4680BD0000014000380240000002406F
:1024300080B58AB000AF786007F1140300221A60FB
:102440005A609A60DA601A617B681B68194A934285
:102450002BD100233B61184B1B6C174A43F400330C
:102460001364154B1B6C03F400333B613B69002381
:10247000FB60114B1B6B104A43F0010313630E4BBF
:102480001B6B03F00103FB60FB680C237B610223E1
:10249000BB610023FB6103233B6207237B6207F1DF
:1024A00014031946054800F0EBFA00BF2837BD4673
:1024B00080BD00BF004400400038024000000240E0
:1024C00080B400AF00BFFDE780B400AF00BFFDE700
:1024D00080B400AF00BFFDE780B400AF00BFFDE7F0
:1024E00080B400AF00BFFDE780B400AF00BFBD46C1
:1024F0005DF8047B704780B400AF00BFBD465DF857
:10250000047B704780B400AF00BFBD465DF8047B1C
:10251000704780B500AF00F05DF900BF80BD80B5A9
:1025200000AF202000F072FC00BF80BD80B400AF7F
:1025300001231846BD465DF8047B704780B582B024
:1025400000AF7860396004F037FD034616221A6048
:102550004FF0FF3318460837BD4680BD80B582B0C6
:1025600000AF78604FF0FF317868FFF7E7FF00BFFA
:10257000FDE780B586B000AFF860B9607A600023EF
:102580007B610AE0AFF300800146BB685A1CBA6069
:10259000CAB21A707B6901337B617A697B689A429F
:1025A000F0DB7B6818461837BD4680BD80B586B025
:1025B00000AFF860B9607A6000237B6109E0BB6816
:1025C0005A1CBA601B781846FEF702FD7B6901337E
:1025D0007B617A697B689A42F1DB7B681846183721
:1025E000BD4680BD80B483B000AF78604FF0FF334C
:1025F00018460C37BD465DF8047B704780B483B045
:1026000000AF786039603B684FF400525A60002395
:1026100018460C37BD465DF8047B704780B483B024
:1026200000AF7860012318460C37BD465DF8047B87
:10263000704780B485B000AFF860B9607A6000235D
:1026400018461437BD465DF8047B704780B586B0E8
:1026500000AF7860144A154BD31A7B617B693B61EC
:10266000134B1B68002B02D1114B124A1A60104BFE
:102670001A687B6813443A699A4207D204F09CFCBA
:1026800003460C221A604FF0FF3309E0084B1B6829
:10269000FB60074B1A687B681344054A1360FB68AC
:1026A00018461837BD4680BD000002200004000017
:1026B000E40300203805002080B400AF064BD3F8B7
:1026C0008830054A43F47003C2F8883000BFBD4625
:1026D0005DF8047B704700BF00ED00E0DFF834D008
:1026E000FFF7EAFF0C480D490D4A002302E0D458D9
:1026F000C4500433C4188C42F9D30A4A0A4C00234C
:1027000001E013600432A242FBD304F05BFCFEF74D
:1027100071FC70470000022000000020F40100203E
:10272000C4940008F401002038050020FEE70000F2
:1027300080B500AF0E4B1B680D4A43F40073136065
:102740000B4B1B680A4A43F480631360084B1B68F9
:10275000074A43F480731360032000F04FF90F2001
:1027600000F008F8FFF71CFD0023184680BD00BFED
:10277000003C024080B582B000AF7860124B1A680E
:10278000124B1B7819464FF47A73B3FBF1F3B2FB8B
:10279000F3F3184600F067F90346002B01D001233C
:1027A0000EE07B680F2B0AD8002279684FF0FF30CB
:1027B00000F02FF9064A7B681360002300E0012334
:1027C00018460837BD4680BD2000002028000020A4
:1027D0002400002080B400AF064B1B781A46064B3D
:1027E0001B681344044A136000BFBD465DF8047BB8
:1027F000704700BF28000020E803002080B400AF2D
:10280000034B1B681846BD465DF8047B704700BF4C
:10281000E803002080B584B000AF7860FFF7EEFFDA
:10282000B8607B68FB60FB68B3F1FF3F05D00A4BE3
:102830001B781A46FB681344FB6000BFFFF7DEFFFE
:102840000246BB68D31AFA689A42F7D800BF00BFA5
:102850001037BD4680BD00BF2800002080B485B081
:1028600000AF78607B6803F00703FB600C4BDB680C
:10287000BB60BA684FF6FF031340BB60FB681A02E7
:10288000BB68134343F0BF6343F40033BB60044AA7
:10289000BB68D36000BF1437BD465DF8047B70474A
:1028A00000ED00E080B400AF044BDB681B0A03F0CE
:1028B00007031846BD465DF8047B704700ED00E055
:1028C00080B483B000AF0346FB7197F90730002B4B
:1028D0000BDBFB7903F01F02074997F907305B090F
:1028E000012000FA02F241F8232000BF0C37BD4658
:1028F0005DF8047B704700BF00E100E080B483B066
:1029000000AF03463960FB7197F90730002B0ADBF3
:102910003B68DAB20C4997F907301201D2B20B4486
:1029200083F800230AE03B68DAB20849FB7903F038
:102930000F03043B1201D2B20B441A7600BF0C37CE
:10294000BD465DF8047B704700E100E000ED00E06B
:1029500080B489B000AFF860B9607A60FB6803F0BA
:102960000703FB61FB69C3F10703042B28BF0423A2
:10297000BB61FB690433062B02D9FB69033B00E012
:1029800000237B614FF0FF32BB6902FA03F3DA43A5
:10299000BB681A407B699A404FF0FF317B6901FAAE
:1029A00003F3D9437B680B40134318462437BD46D5
:1029B0005DF8047B7047000080B582B000AF78609E
:1029C0007B68013BB3F1807F01D301230FE00A4A0A
:1029D0007B68013B53600F214FF0FF30FFF78EFF04
:1029E000054B00229A60044B07221A600023184608
:1029F0000837BD4680BD00BF10E000E080B582B062
:102A000000AF78607868FFF729FF00BF0837BD4640
:102A100080BD80B586B000AF0346B9607A60FB73B5
:102A200000237B61FFF73EFF78617A68B9687869B7
:102A3000FFF78EFF024697F90F3011461846FFF751
:102A40005DFF00BF1837BD4680BD80B582B000AFC6
:102A50000346FB7197F907301846FFF731FF00BFB7
:102A60000837BD4680BD80B582B000AF7860786819
:102A7000FFF7A2FF034618460837BD4680BD000099
:102A800080B489B000AF7860396000237B61002397
:102A90003B610023BB610023FB6165E10122FB690F
:102AA00002FA03F37B613B681B687A6913403B6160
:102AB0003A697B699A4240F054813B685B6803F055
:102AC0000303012B05D03B685B6803F00303022B73
:102AD00030D17B689B68BB61FB695B00032202FA13
:102AE00003F3DB43BA691340BB613B68DA68FB69F7
:102AF0005B0002FA03F3BA691343BB617B68BA69EE
:102B00009A607B685B68BB610122FB6902FA03F390
:102B1000DB43BA691340BB613B685B681B0903F088
:102B20000102FB6902FA03F3BA691343BB617B68D4
:102B3000BA695A603B685B6803F00303032B17D044
:102B40007B68DB68BB61FB695B00032202FA03F36D
:102B5000DB43BA691340BB613B689A68FB695B0061
:102B600002FA03F3BA691343BB617B68BA69DA609E
:102B70003B685B6803F00303022B23D1FB69DA088F
:102B80007B68083253F82230BB61FB6903F007030E
:102B90009B000F2202FA03F3DB43BA691340BB61C7
:102BA0003B681A69FB6903F007039B0002FA03F311
:102BB000BA691343BB61FB69DA087B680832B969FB
:102BC00043F822107B681B68BB61FB695B00032232
:102BD00002FA03F3DB43BA691340BB613B685B68ED
:102BE00003F00302FB695B0002FA03F3BA691343C3
:102BF000BB617B68BA691A603B685B6803F4403369
:102C0000002B00F0AE800023FB605D4B5B6C5C4AE8
:102C100043F4804353645A4B5B6C03F48043FB6082
:102C2000FB68584AFB699B08023352F82330BB61AA
:102C3000FB6903F003039B000F2202FA03F3DB435B
:102C4000BA691340BB617B684F4A934225D07B68C9
:102C50004E4A93421FD07B684D4A934219D07B68FD
:102C60004C4A934213D07B684B4A93420DD07B6809
:102C70004A4A934207D07B68494A934201D10623CE
:102C80000CE007230AE0052308E0042306E0032301
:102C900004E0022302E0012300E00023FA6902F0CD
:102CA000030292009340BA691343BB613549FB6943
:102CB0009B080233BA6941F823203A4B9B68BB61F9
:102CC0003B69DB43BA691340BB613B685B6803F453
:102CD0008013002B03D0BA693B691343BB61314AAF
:102CE000BB6993602F4BDB68BB613B69DB43BA690F
:102CF0001340BB613B685B6803F40013002B03D0F7
:102D0000BA693B691343BB61264ABB69D360254B53
:102D10005B68BB613B69DB43BA691340BB613B68DD
:102D20005B6803F40033002B03D0BA693B6913439B
:102D3000BB611C4ABB6953601A4B1B68BB613B6992
:102D4000DB43BA691340BB613B685B6803F48033C3
:102D5000002B03D0BA693B691343BB61114ABB69BD
:102D60001360FB690133FB61FB690F2B7FF696AEA5
:102D700000BF00BF2437BD465DF8047B704700BF2D
:102D800000380240003801400000024000040240C8
:102D900000080240000C02400010024000140240F3
:102DA00000180240003C014080B485B000AF78605C
:102DB0000B467B807B681A697B881340002B02D00E
:102DC0000123FB7301E00023FB73FB7B18461437E0
:102DD000BD465DF8047B704780B483B000AF786077
:102DE0000B467B8013467B707B78002B03D07A8860
:102DF0007B689A6103E07B881A047B689A6100BF54
:102E00000C37BD465DF8047B7047000080B582B08A
:102E100000AF0346FB80084B5A69FB881340002B28
:102E200006D0054AFB885361FB88184600F006F877
:102E300000BF0837BD4680BD003C014080B483B070
:102E400000AF0346FB8000BF0C37BD465DF8047B36
:102E50007047000080B584B000AF78607B68002BBD
:102E600001D101232BE17B6893F83D30DBB2002BCD
:102E700006D17B68002283F83C207868FFF7B8F918
:102E80007B68242283F83D207B681B681A687B6876
:102E90001B6822F001021A607B681B681A687B6855
:102EA0001B6842F400421A607B681B681A687B68E2
:102EB0001B6822F400421A6001F06CFAF8607B682B
:102EC0005B68814A934207D8FB68804A934294BF6B
:102ED00001230023DBB206E0FB687D4A934294BFE6
:102EE00001230023DBB2002B01D00123E7E0FB68C4
:102EF000784AA2FB03239B0CBB607B681B685B6862
:102F000023F03F017B681B68BA680A435A607B68FC
:102F10001B681B6A23F03F017B685B686A4A934227
:102F200002D8BB68013309E0BB684FF4967202FB1C
:102F300003F3694AA2FB03239B0901337A681268F1
:102F40000B4313627B681B68DB6923F44F4222F05A
:102F5000FF027B685B685C498B4219D8FB68591E8D
:102F60007B685B685B00B1FBF3F3591C40F6FC73B4
:102F70000B40002B0AD0FB68591E7B685B685B0026
:102F8000B1FBF3F30133C3F30B0351E004234FE030
:102F90007B689B68002B11D1FB68581E7B685968C1
:102FA0000B465B000B44B0FBF3F30133C3F30B039D
:102FB000002B0CBF01230023DBB212E0FB68581E7C
:102FC0007B6859680B469B000B4499000B44B0FB8F
:102FD000F3F30133C3F30B03002B0CBF01230023D6
:102FE000DBB2002B01D0012322E07B689B68002B21
:102FF0000ED1FB68581E7B6859680B465B000B447A
:10300000B0FBF3F30133C3F30B0343F400430FE0CE
:10301000FB68581E7B6859680B469B000B4499005F
:103020000B44B0FBF3F30133C3F30B0343F440430E
:10303000796809681343CB617B681B681B6823F0C0
:10304000C0017B68DA697B681B6A1A437B681B686E
:103050000A431A607B681B689B6823F4034323F0D0
:10306000FF037A6811697A68D26811437A68126836
:103070000B4393607B681B68DB6823F0FF017B6870
:103080005A697B689B691A437B681B680A43DA604C
:103090007B681B681A687B681B6842F001021A6033
:1030A0007B6800221A647B68202283F83D207B68BD
:1030B00000221A637B68002283F83E200023184612
:1030C0001037BD4680BD00BFA08601007F841E0072
:1030D000FF083D0083DE1B43D34D621080B588B0EE
:1030E00002AFF860084611461A4603467B810B463C
:1030F0003B811346FB80FFF781FB7861FB6893F807
:103100003D30DBB2202B40F0D9807B69009319233E
:1031100001226D49F86800F0C5FD0346002B01D07F
:103120000223CCE0FB6893F83C30012B01D1022351
:10313000C5E0FB68012283F83C20FB681B681B6824
:1031400003F00103012B07D0FB681B681A68FB68BA
:103150001B6842F001021A60FB681B681A68FB6872
:103160001B6822F400621A60FB68212283F83D206C
:10317000FB68402283F83E20FB6800221A64FB684B
:103180003A6A5A62FB68BA8C5A85FB685B8D9AB2C0
:10319000FB681A85FB684D4ADA62F8883A897989B2
:1031A0007B690193BB6A00930346F86800F0FCFB5F
:1031B0000346002B52D0012381E07A69B96AF8688E
:1031C00000F08AFE0346002B0DD0FB681B6C042B1D
:1031D00007D1FB681B681A68FB681B6842F4007221
:1031E0001A6001236BE0FB685B6A1A78FB681B6856
:1031F0001A61FB685B6A5A1CFB685A62FB681B8D8C
:10320000013B9AB2FB681A85FB685B8D9BB2013B60
:103210009AB2FB685A85FB681B685B6903F004037C
:10322000042B1BD1FB681B8D002B17D0FB685B6A3E
:103230001A78FB681B681A61FB685B6A5A1CFB689A
:103240005A62FB681B8D013B9AB2FB681A85FB68CA
:103250005B8D9BB2013B9AB2FB685A85FB681B8D64
:10326000002BAAD17A69B96AF86800F07DFE03469E
:10327000002B0DD0FB681B6C042B07D1FB681B686F
:103280001A68FB681B6842F400721A60012316E09A
:10329000FB681B681A68FB681B6842F400721A60BE
:1032A000FB68202283F83D20FB68002283F83E2043
:1032B000FB68002283F83C20002300E0022318462C
:1032C0001837BD4680BD00BF020010000000FFFFA0
:1032D00080B58CB002AFF860084611461A46034626
:1032E0007B810B463B811346FB80FFF787FA7862B0
:1032F000FB6893F83D30DBB2202B40F014827B6AF0
:103300000093192301227B49F86800F0CBFC0346A7
:10331000002B01D0022307E2FB6893F83C30012B1D
:1033200001D1022300E2FB68012283F83C20FB6804
:103330001B681B6803F00103012B07D0FB681B68A7
:103340001A68FB681B6842F001021A60FB681B6880
:103350001A68FB681B6822F400621A60FB6822226C
:1033600083F83D20FB68402283F83E20FB68002262
:103370001A64FB683A6B5A62FB68BA8E5A85FB681E
:103380005B8D9AB2FB681A85FB685B4ADA62F88843
:103390003A8979897B6A0193BB6B00930346F8688D
:1033A00000F098FB0346002B01D00123BCE1FB6831
:1033B0001B8D002B13D100233B62FB681B685B69EC
:1033C0003B62FB681B689B693B623B6AFB681B684E
:1033D0001A68FB681B6842F400721A6090E1FB688F
:1033E0001B8D012B1BD1FB681B681A68FB681B68CF
:1033F00022F480621A600023FB61FB681B685B6932
:10340000FB61FB681B689B69FB61FB69FB681B68D0
:103410001A68FB681B6842F400721A6070E1FB686E
:103420001B8D022B1BD1FB681B681A68FB681B688D
:1034300022F480621A60FB681B681A68FB681B68CC
:1034400042F400621A600023BB61FB681B685B6981
:10345000BB61FB681B689B69BB61BB6950E10023D2
:103460007B61FB681B685B697B61FB681B689B6910
:103470007B617B6944E1FB681B8D032B00F2F180CB
:10348000FB681B8D012B23D17A6AB96BF86800F0B9
:10349000B3FD0346002B01D0012345E1FB681B6807
:1034A0001A69FB685B6AD2B21A70FB685B6A5A1CC5
:1034B000FB685A62FB681B8D013B9AB2FB681A8558
:1034C000FB685B8D9BB2013B9AB2FB685A8517E1A2
:1034D000FB681B8D022B4ED17B6A0093BB6B0022D5
:1034E0000649F86800F0DEFB0346002B08D00123F4
:1034F0001AE100BF020010000000FFFF04000100FD
:10350000FB681B681A68FB681B6842F400721A604B
:10351000FB681B681A69FB685B6AD2B21A70FB68A9
:103520005B6A5A1CFB685A62FB681B8D013B9AB2AE
:10353000FB681A85FB685B8D9BB2013B9AB2FB6806
:103540005A85FB681B681A69FB685B6AD2B21A70FD
:10355000FB685B6A5A1CFB685A62FB681B8D013B67
:103560009AB2FB681A85FB685B8D9BB2013B9AB2ED
:10357000FB685A85C4E07B6A0093BB6B00226C49F0
:10358000F86800F08FFB0346002B01D00123CBE04D
:10359000FB681B681A68FB681B6822F480621A606B
:1035A000FB681B681A69FB685B6AD2B21A70FB6819
:1035B0005B6A5A1CFB685A62FB681B8D013B9AB21E
:1035C000FB681A85FB685B8D9BB2013B9AB2FB6876
:1035D0005A857B6A0093BB6B00225549F86800F05E
:1035E00061FB0346002B01D001239DE0FB681B68B3
:1035F0001A68FB681B6842F400721A60FB681B685B
:103600001A69FB685B6AD2B21A70FB685B6A5A1C63
:10361000FB685A62FB681B8D013B9AB2FB681A85F6
:10362000FB685B8D9BB2013B9AB2FB685A85FB68D5
:103630001B681A69FB685B6AD2B21A70FB685B6A26
:103640005A1CFB685A62FB681B8D013B9AB2FB68EF
:103650001A85FB685B8D9BB2013B9AB2FB685A8569
:103660004EE07A6AB96BF86800F0C6FC0346002B9E
:1036700001D0012358E0FB681B681A69FB685B6A8C
:10368000D2B21A70FB685B6A5A1CFB685A62FB680C
:103690001B8D013B9AB2FB681A85FB685B8D9BB260
:1036A000013B9AB2FB685A85FB681B685B6903F0B3
:1036B0000403042B24D1FB681B8D032B07D1FB686B
:1036C0001B681A68FB681B6822F480621A60FB683A
:1036D0001B681A69FB685B6AD2B21A70FB685B6A86
:1036E0005A1CFB685A62FB681B8D013B9AB2FB684F
:1036F0001A85FB685B8D9BB2013B9AB2FB685A85C9
:10370000FB681B8D002B7FF4B6AEFB68202283F88C
:103710003D20FB68002283F83E20FB68002283F8EE
:103720003C20002300E0022318462837BD4680BD18
:103730000400010080B58AB002AFF8607A603B6097
:103740000B467B81FFF75AF8F8610023BB61FB68E9
:1037500093F83D30DBB2202B40F01181FB690093E0
:10376000192301228849F86800F09CFA0346002BCF
:1037700001D0022304E1FB6893F83C30012B01D116
:103780000223FDE0FB68012283F83C20FB681B68F4
:103790001B6803F00103012B07D0FB681B681A6844
:1037A000FB681B6842F001021A60FB681B681A681C
:1037B000FB681B6822F400621A60FB68242283F80D
:1037C0003D20FB6800221A64FB68704ADA62FB68DD
:1037D0001B681A68FB681B6842F480721A60FB69F8
:1037E00000933B6800224FF00111F86800F05AFA8C
:1037F0000346002B0DD0FB681B681B6803F4807325
:10380000B3F5807F03D1FB684FF400721A64032381
:10381000B6E07B89DBB21A46FB681B6802F0FE0249
:103820001A61FEF7EBFFF861FB681B685B6903F048
:103830000203022B0CBF01230023DBB2FB75FB68E4
:103840001B685B6903F48063B3F5806F0CBF0123D1
:103850000023DBB2BB7525E0FEF7D0FF0246FB6913
:10386000D31A3A689A4202D33B68002B03D1FB6813
:10387000A02283F83D20FB681B685B6903F002030C
:10388000022B0CBF01230023DBB2FB75FB681B6816
:103890005B6903F48063B3F5806F0CBF01230023E1
:1038A000DBB2BB75FB6893F83D30DBB2A02B05D0D3
:1038B000FB7D002B02D1BB7D002BCDD0FB682022ED
:1038C00083F83D20FB681B685B6903F00203022B51
:1038D00029D1FB681B681A68FB681B6842F40072F8
:1038E0001A6000233B61FB681B685B693B61FB68F6
:1038F0001B689B693B613B69FB69009319230122AB
:103900002149F86800F0CEF90346002B01D00123CD
:1039100036E0FB68202283F83D20FB68002283F814
:103920003C2000232CE0FB681B681A68FB681B68BE
:1039300042F400721A60FB681B686FF480625A617F
:10394000FB690093192301220F49F86800F0AAF9D6
:103950000346002B01D0012312E0BB690133BB6198
:10396000BA697B689A42FFF432AFFB68202283F881
:103970003D20FB68002283F83C20012300E0022365
:1039800018462037BD4680BD020010000000FFFF32
:1039900080B483B000AF78607B681B6C18460C372E
:1039A000BD465DF8047B704780B588B002AFF86013
:1039B000084611461A4603467B810B463B81134657
:1039C000FB80FB681B681A68FB681B6842F4807206
:1039D0001A607B6A00933B6A00224FF00111F8687D
:1039E00000F060F90346002B0DD0FB681B681B68D4
:1039F00003F48073B3F5807F03D1FB684FF400724A
:103A00001A6403235FE07B89DBB21A46FB681B68FC
:103A100002F0FE021A617B6A3A6A2D49F86800F0EA
:103A2000BBF90346002B01D001234CE000237B614E
:103A3000FB681B685B697B61FB681B689B697B613A
:103A40007B697A6A396AF86800F046FA0346002B07
:103A50000DD0FB681B6C042B07D1FB681B681A6830
:103A6000FB681B6842F400721A6001232BE0FB889C
:103A7000012B05D13B89DAB2FB681B681A6121E092
:103A80003B891B0A9BB2DAB2FB681B681A617A6A2F
:103A9000396AF86800F020FA0346002B0DD0FB6865
:103AA0001B6C042B07D1FB681B681A68FB681B683A
:103AB00042F400721A60012305E03B89DAB2FB6828
:103AC0001B681A61002318461837BD4680BD00BF29
:103AD0000200010080B588B002AFF86008461146C8
:103AE0001A4603467B810B463B811346FB80FB68ED
:103AF0001B681A68FB681B6842F480621A60FB68E6
:103B00001B681A68FB681B6842F480721A607B6A43
:103B100000933B6A00224FF00111F86800F0C2F8F0
:103B20000346002B0DD0FB681B681B6803F48073F1
:103B3000B3F5807F03D1FB684FF400721A6403234E
:103B4000AAE07B89DBB21A46FB681B6802F0FE0222
:103B50001A617B6A3A6A5249F86800F01DF9034617
:103B6000002B01D0012397E000237B61FB681B68D9
:103B70005B697B61FB681B689B697B617B697A6A17
:103B8000396AF86800F0A8F90346002B0DD0FB68ED
:103B90001B6C042B07D1FB681B681A68FB681B6849
:103BA00042F400721A60012376E0FB88012B05D1F4
:103BB0003B89DAB2FB681B681A6121E03B891B0A6A
:103BC0009BB2DAB2FB681B681A617A6A396AF868D4
:103BD00000F082F90346002B0DD0FB681B6C042B10
:103BE00007D1FB681B681A68FB681B6842F4007207
:103BF0001A60012350E03B89DAB2FB681B681A6146
:103C00007A6A396AF86800F067F90346002B0DD02C
:103C1000FB681B6C042B07D1FB681B681A68FB68E8
:103C20001B6842F400721A60012335E0FB681B68D0
:103C30001A68FB681B6842F480721A607B6A009302
:103C40003B6A00224FF00111F86800F02BF80346A0
:103C5000002B0DD0FB681B681B6803F48073B3F561
:103C6000807F03D1FB684FF400721A64032313E0D2
:103C70007B89DBB243F00103DAB2FB681B681A618F
:103C80007B6A3A6A0649F86800F086F80346002B1A
:103C900001D0012300E0002318461837BD4680BD3F
:103CA0000200010080B584B000AFF860B9603B60ED
:103CB0001346FB7148E03B68B3F1FF3F44D0FEF789
:103CC0009DFD0246BB69D31A3A689A4202D33B680B
:103CD000002B39D1BB681B0CDBB2012B0DD1FB686B
:103CE0001B685B69DA43BB6813409BB2002B0CBFB7
:103CF00001230023DBB21A460CE0FB681B689B69BA
:103D0000DA43BB6813409BB2002B0CBF0123002396
:103D1000DBB21A46FB799A4216D1FB6800221A637D
:103D2000FB68202283F83D20FB68002283F83E20B8
:103D3000FB681B6C43F02002FB681A64FB680022DE
:103D400083F83C20012323E0BB681B0CDBB2012B72
:103D50000DD1FB681B685B69DA43BB6813409BB2FB
:103D6000002B0CBF01230023DBB21A460CE0FB68DA
:103D70001B689B69DA43BB6813409BB2002B0CBFE6
:103D800001230023DBB21A46FB799A4293D0002329
:103D900018461037BD4680BD80B584B000AFF860CE
:103DA000B9607A603B6071E0FB681B685B6903F493
:103DB0008063B3F5806F23D1FB681B681A68FB68CA
:103DC0001B6842F400721A60FB681B686FF4806223
:103DD0005A61FB6800221A63FB68202283F83D20A9
:103DE000FB68002283F83E20FB681B6C43F0040252
:103DF000FB681A64FB68002283F83C20012367E01B
:103E00007B68B3F1FF3F41D0FEF7F8FC02463B6808
:103E1000D31A7A689A4202D37B68002B36D1BB68EA
:103E20001B0CDBB2012B0CD1FB681B685B69DA430E
:103E3000BB6813409BB2002B14BF01230023DBB2ED
:103E40000BE0FB681B689B69DA43BB6813409BB2BD
:103E5000002B14BF01230023DBB2002B16D0FB681C
:103E600000221A63FB68202283F83D20FB680022B1
:103E700083F83E20FB681B6C43F02002FB681A6449
:103E8000FB68002283F83C20012321E0BB681B0C67
:103E9000DBB2012B0CD1FB681B685B69DA43BB68A2
:103EA00013409BB2002B14BF01230023DBB20BE0B5
:103EB000FB681B689B69DA43BB6813409BB2002B0D
:103EC00014BF01230023DBB2002B7FF46DAF00236E
:103ED00018461037BD4680BD80B584B000AFF8608D
:103EE000B9607A6034E0F86800F0E3F80346002B2C
:103EF00001D0012334E0BB68B3F1FF3F28D0FEF7C7
:103F00007DFC02467B68D31ABA689A4202D3BB682A
:103F1000002B1DD1FB681B685B6903F08003802BBD
:103F200016D0FB6800221A63FB68202283F83D202C
:103F3000FB68002283F83E20FB681B6C43F02002E4
:103F4000FB681A64FB68002283F83C20012307E029
:103F5000FB681B685B6903F08003802BC3D10023DF
:103F600018461037BD4680BD80B584B000AFF860FC
:103F7000B9607A6034E0F86800F09BF80346002BE3
:103F800001D0012334E0BB68B3F1FF3F28D0FEF736
:103F900035FC02467B68D31ABA689A4202D3BB68E2
:103FA000002B1DD1FB681B685B6903F00403042B25
:103FB00016D0FB6800221A63FB68202283F83D209C
:103FC000FB68002283F83E20FB681B6C43F0200254
:103FD000FB681A64FB68002283F83C20012307E099
:103FE000FB681B685B6903F00403042BC3D1002347
:103FF00018461037BD4680BD80B584B000AFF8606C
:10400000B9607A6049E0FB681B685B6903F01003E4
:10401000102B19D1FB681B686FF010025A61FB6806
:1040200000221A63FB68202283F83D20FB680022EF
:1040300083F83E20FB681A6CFB681A64FB68002258
:1040400083F83C20012330E0FEF7D8FB02467B6872
:10405000D31ABA689A4202D3BB68002B1DD1FB6801
:104060001B685B6903F04003402B16D0FB680022FD
:104070001A63FB68202283F83D20FB68002283F846
:104080003E20FB681B6C43F02002FB681A64FB684F
:10409000002283F83C20012307E0FB681B685B6972
:1040A00003F04003402BAED1002318461037BD4625
:1040B00080BD80B483B000AF78607B681B685B69AB
:1040C00003F48063B3F5806F1BD17B681B686FF4CA
:1040D00080625A617B6800221A637B68202283F821
:1040E0003D207B68002283F83E207B681B6C43F0F8
:1040F00004027B681A647B68002283F83C20012359
:1041000000E0002318460C37BD465DF8047B70477D
:1041100080B582B000AF00237B6000233B60204B62
:104120001B6C1F4A43F0805313641D4B1B6C03F040
:1041300080533B603B681B4B01221A60FEF75EFB1D
:10414000786009E0FEF75AFB02467B68D31AB3F5A4
:104150007A7F01D903231FE0134B5B6803F480339C
:10416000B3F5803FEED1114B01221A60FEF746FBFA
:10417000786009E0FEF742FB02467B68D31AB3F58C
:104180007A7F01D9032307E0074B5B6803F4003310
:10419000B3F5003FEED1002318460837BD4680BD79
:1041A0000038024040000E420070004044000E42C1
:1041B00080B584B000AF786039607B68002B01D196
:1041C0000123CCE0684B1B6803F00F033A689A4266
:1041D0000CD9654B3A68D2B21A70634B1B6803F076
:1041E0000F033A689A4201D00123B8E07B681B684C
:1041F00003F00203002B20D07B681B6803F004034C
:10420000002B05D0594B9B68584A43F4E053936008
:104210007B681B6803F00803002B05D0534B9B6899
:10422000524A43F460439360504B9B6823F0F00282
:104230007B689B684D4913438B607B681B6803F068
:104240000103002B44D07B685B68012B07D1474BEF
:104250001B6803F40033002B19D101237FE07B6836
:104260005B68022B03D07B685B68032B07D13F4B55
:104270001B6803F00073002B09D101236FE03B4B57
:104280001B6803F00203002B01D1012367E0374BC9
:104290009B6823F003027B685B68344913438B609F
:1042A000FEF7ACFAF8600AE0FEF7A8FA0246FB68EF
:1042B000D31A41F28832934201D903234FE02B4BAA
:1042C0009B6803F00C027B685B689B009A42EBD111
:1042D000254B1B6803F00F033A689A420CD2224B1D
:1042E0003A68D2B21A70204B1B6803F00F033A6889
:1042F0009A4201D0012332E07B681B6803F004037B
:10430000002B08D0194B9B6823F4E0527B68DB68D4
:10431000164913438B607B681B6803F00803002B6E
:1043200009D0124B9B6823F460427B681B69DB0059
:104330000E4913438B6000F055F802460B4B9B6807
:104340001B0903F00F030A49CB5C22FA03F3094A65
:104350001360094B1B681846FEF70CFA0023184639
:104360001037BD4680BD00BF003C0240003802400F
:10437000F0900008200000202400002080B400AF4E
:10438000034B1B681846BD465DF8047B704700BFB1
:104390002000002080B500AFFFF7F0FF0246054B7C
:1043A0009B689B0A03F007030349CB5C22FA03F3E3
:1043B000184680BD003802400091000880B500AF6B
:1043C000FFF7DCFF0246054B9B685B0B03F007031E
:1043D0000349CB5C22FA03F3184680BD0038024043
:1043E000009100082DE9B04FAEB000AF0023C7F830
:1043F000AC300023C7F8B4300023C7F8A83000233E
:10440000C7F8A4300023C7F8B030CB4B9B6803F04B
:104410000C030C2B00F2068201A252F823F000BF1D
:10442000554400082548000825480008254800088C
:104430005D44000825480008254800082548000874
:10444000654400082548000825480008254800085C
:1044500055460008B94BC7F8B030E7E1B84BC7F88C
:10446000B030E3E1B44B5B6803F03F03C7F8AC3016
:10447000B14B5B6803F48003002B71D0AE4B5B68DB
:104480009B090022C7F89830C7F89C20D7F89830CD
:10449000C3F30803C7F890300023C7F89430D7E976
:1044A000244522462B464FF000004FF000015901F1
:1044B00041EAD261500102460B462146511A396445
:1044C000294663EB01037B644FF000024FF00003C9
:1044D000D7E9108949468B01414643EA9163414639
:1044E0008A014146511AB963494663EB0103FB63F4
:1044F0004FF000024FF00003D7E90E894946CB0088
:10450000414643EA51734146CA00104619460346E4
:1045100022469B183B632B460A4642EB03037B6310
:104520004FF000024FF00003D7E90C4529464B023B
:10453000214643EAD15321464A0210461946D7F88C
:10454000AC300022C7F88830C7F88C20D7E9222386
:10455000FCF74AFB02460B461346C7F8B43067E047
:10456000754B5B689B090022C7F88030C7F8842030
:10457000D7F88030C3F30803BB670023FB67D7E994
:104580001E4522462B464FF000004FF00001590116
:1045900041EAD261500102460B462146511AB962E6
:1045A000294663EB0103FB624FF000024FF000036A
:1045B000D7E90A8949468B01414643EA916341465E
:1045C0008A014146B2EB010A494663EB010B4FF009
:1045D00000024FF000034FEACB0343EA5A734FEA5D
:1045E000CA0292469B4623461AEB03033B622B46C4
:1045F0004BEB03037B624FF000024FF00003D7E95F
:10460000084529468B02214643EA915321468A02F6
:1046100010461946D7F8AC3000223B677A67D7E9D5
:104620001C23FCF7E1FA02460B461346C7F8B430E8
:10463000414B5B681B0C03F0030301335B00C7F8BD
:10464000A830D7F8B420D7F8A830B2FBF3F3C7F8F6
:10465000B030EBE0384B5B6803F03F03C7F8AC3099
:10466000354B5B6803F48003002B6BD0324B5B68E7
:104670009B090022BB66FA66BB6EC3F308033B6668
:1046800000237B66D7E9184522462B464FF00000F1
:104690004FF00001590141EAD261500102460B4638
:1046A0002146511AB961294663EB0103FB614FF0C2
:1046B00000024FF00003D7E906AB59468B01514683
:1046C00043EA916351468A015146B2EB01085946CB
:1046D00063EB01094FF000024FF000034FEAC903FA
:1046E00043EA58734FEAC80290469946234618EBAE
:1046F00003033B612B4649EB03037B614FF0000250
:104700004FF00003D7E9044529464B02214643EA0E
:10471000D15321464A0210461946D7F8AC30002240
:10472000BB65FA65D7E91623FCF75EFA02460B462D
:104730001346C7F8B43065E0003802400024F400A6
:1047400000127A003D4B5B689B0900221846114617
:10475000C0F308033B6500237B65D7E91489424613
:104760004B464FF000004FF00001590141EAD26181
:10477000500102460B464146511AB960494663EB67
:104780000103FB604FF000024FF00003D7E902ABDA
:1047900059468B01514643EA916351468A0151467D
:1047A000541A594663EB01054FF000024FF0000325
:1047B000EB0043EA5473E20014461D464346E318F7
:1047C0003B604B4645EB03037B604FF000024FF02C
:1047D0000003D7E9004529468B02214643EA91535D
:1047E00021468A0210461946D7F8AC300022BB6435
:1047F000FA64D7E91223FCF7F7F902460B46134691
:10480000C7F8B4300D4B5B681B0F03F00703C7F804
:10481000A430D7F8B420D7F8A430B2FBF3F3C7F82C
:10482000B03003E0064BC7F8B03000BFD7F8B03067
:104830001846B837BD46BDE8B08F00BF003802400B
:104840000024F40080B586B000AF78607B68002B50
:1048500001D101238DE27B681B6803F00103002B6B
:1048600000F08380944B9B6803F00C03042B19D059
:10487000914B9B6803F00C03082B06D18E4B5B68B1
:1048800003F48003B3F5800F0CD08B4B9B6803F0CF
:104890000C030C2B12D1884B5B6803F48003B3F537
:1048A000800F0BD1844B1B6803F40033002B5BD0CB
:1048B0007B685B68002B57D101235AE27B685B68F9
:1048C000B3F5803F06D17C4B1B687B4A43F48033B1
:1048D00013601DE07B685B68B3F5A02F0CD1764BAD
:1048E0001B68754A43F480231360734B1B68724A3C
:1048F00043F4803313600BE06F4B1B686E4A23F464
:10490000803313606C4B1B686B4A23F48023136065
:104910007B685B68002B13D0FDF770FF386108E0FF
:10492000FDF76CFF02463B69D31A642B01D90323C0
:104930001FE2614B1B6803F40033002BF0D014E03E
:10494000FDF75CFF386108E0FDF758FF02463B6960
:10495000D31A642B01D903230BE2574B1B6803F4D2
:104960000033002BF0D100E000BF7B681B6803F030
:104970000203002B6FD0504B9B6803F00C03002BFD
:1049800017D04D4B9B6803F00C03082B05D14A4B05
:104990005B6803F48003002B0BD0474B9B6803F04C
:1049A0000C030C2B1CD1444B5B6803F48003002BDD
:1049B00016D1414B1B6803F00203002B05D07B6826
:1049C000DB68012B01D00123D3E13B4B1B6823F0B3
:1049D000F8027B681B69DB00374913430B603AE040
:1049E0007B68DB68002B20D0344B01221A60FDF776
:1049F00005FF386108E0FDF701FF02463B69D31A65
:104A0000022B01D90323B4E12B4B1B6803F00203F3
:104A1000002BF0D0284B1B6823F0F8027B681B6941
:104A2000DB00254913430B6015E0244B00221A607C
:104A3000FDF7E4FE386108E0FDF7E0FE02463B6961
:104A4000D31A022B01D9032393E11B4B1B6803F0FC
:104A50000203002BF0D17B681B6803F00803002BD6
:104A600036D07B685B69002B16D0154B01221A608B
:104A7000FDF7C4FE386108E0FDF7C0FE02463B6961
:104A8000D31A022B01D9032373E10B4B5B6F03F0A5
:104A90000203002BF0D01BE0094B00221A60FDF747
:104AA000ADFE38610EE0FDF7A9FE02463B69D31A60
:104AB000022B07D903235CE1003802400000474283
:104AC000800E47428A4B5B6F03F00203002BEAD152
:104AD0007B681B6803F00403002B00F09780002321
:104AE000FB75834B1B6C03F08053002B0FD100230D
:104AF000BB607F4B1B6C7E4A43F0805313647C4B3E
:104B00001B6C03F08053BB60BB680123FB75794BC2
:104B10001B6803F48073002B18D1764B1B68754A11
:104B200043F480731360FDF769FE386108E0FDF718
:104B300065FE02463B69D31A022B01D9032318E113
:104B40006C4B1B6803F48073002BF0D07B689B6870
:104B5000012B06D1664B1B6F654A43F001031367B7
:104B60001CE07B689B68052B0CD1614B1B6F604A76
:104B700043F0040313675E4B1B6F5D4A43F0010370
:104B800013670BE05A4B1B6F594A23F0010313675D
:104B9000574B1B6F564A23F0040313677B689B68CF
:104BA000002B15D0FDF72AFE38610AE0FDF726FE3E
:104BB00002463B69D31A41F28832934201D903235A
:104BC000D7E04B4B1B6F03F00203002BEED014E039
:104BD000FDF714FE38610AE0FDF710FE02463B695E
:104BE000D31A41F28832934201D90323C1E0404BEA
:104BF0001B6F03F00203002BEED1FB7D012B05D1CF
:104C00003B4B1B6C3A4A23F0805313647B689B69CF
:104C1000002B00F0AD80364B9B6803F00C03082B93
:104C200060D07B689B69022B45D1334B00221A6010
:104C3000FDF7E4FD386108E0FDF7E0FD02463B6961
:104C4000D31A022B01D9032393E0294B1B6803F0ED
:104C50000073002BF0D17B68DA697B681B6A1A430A
:104C60007B685B6A9B011A437B689B6A5B08013B1C
:104C70001B041A437B68DB6A1B061A437B681B6BA9
:104C80001B071B4913434B601B4B01221A60FDF7A6
:104C9000B5FD386108E0FDF7B1FD02463B69D31A66
:104CA000022B01D9032364E0114B1B6803F000734E
:104CB000002BF0D05CE0104B00221A60FDF79EFD47
:104CC000386108E0FDF79AFD02463B69D31A022BD2
:104CD00001D903234DE0064B1B6803F00073002B42
:104CE000F0D145E07B689B69012B07D1012340E0AF
:104CF0000038024000700040600047421F4B5B6874
:104D0000FB607B689B69012B30D0FB6803F4800259
:104D10007B68DB699A4229D1FB6803F03F027B681C
:104D20001B6A9A4222D1FA6847F6C07313407A6828
:104D3000526A9201934219D1FB6803F440327B68B6
:104D40009B6A5B08013B1B049A420FD1FB6803F08E
:104D500070627B68DB6A1B069A4207D1FB6803F02E
:104D6000E0427B681B6B1B079A4201D0012300E0E5
:104D7000002318461837BD4680BD00BF00380240EA
:104D800080B582B000AF78607B68002B01D1012331
:104D900041E07B6893F83D30DBB2002B06D17B68A5
:104DA000002283F83C207868FDF76AFA7B680222CB
:104DB00083F83D207B681A687B68043319461046E7
:104DC00000F0ECFA7B68012283F846207B68012220
:104DD00083F83E207B68012283F83F207B68012214
:104DE00083F840207B68012283F841207B68012200
:104DF00083F842207B68012283F843207B680122EC
:104E000083F844207B68012283F845207B680122D7
:104E100083F83D20002318460837BD4680BD0000BA
:104E200080B584B000AF786039603B68002B09D151
:104E30007B6893F83E30DBB2012B14BF01230023C3
:104E4000DBB222E03B68042B09D17B6893F83F304A
:104E5000DBB2012B14BF01230023DBB215E03B685A
:104E6000082B09D17B6893F84030DBB2012B14BFCB
:104E700001230023DBB208E07B6893F84130DBB20A
:104E8000012B14BF01230023DBB2002B01D001232F
:104E90007CE03B68002B04D17B68022283F83E2033
:104EA00013E03B68042B04D17B68022283F83F2087
:104EB0000BE03B68082B04D17B68022283F840207A
:104EC00003E07B68022283F841207B681B68012293
:104ED0003968184600F0B8FC7B681B682D4A93427D
:104EE00004D07B681B682C4A934201D1012300E067
:104EF0000023002B07D07B681B685A6C7B681B68FB
:104F000042F400425A647B681B68224A934222D0D2
:104F10007B681B68B3F1804F1DD07B681B681F4AFC
:104F2000934218D07B681B681D4A934213D07B685C
:104F30001B681C4A93420ED07B681B68164A93423A
:104F400009D07B681B68184A934204D07B681B68B1
:104F5000164A934211D17B681B689B6803F00703D4
:104F6000FB60FB68062B10D07B681B681A687B68A7
:104F70001B6842F001021A6007E07B681B681A6830
:104F80007B681B6842F001021A6000231846103744
:104F9000BD4680BD00000140000401400004004007
:104FA00000080040000C0040004001400018004094
:104FB00080B586B000AF786039607B68002B01D186
:104FC000012397E07B6893F83D30DBB2002B06D1DC
:104FD0007B68002283F83C207868FDF773F97B68D2
:104FE000022283F83D207B681B689B687A68126800
:104FF00023F4804323F0070393607B681A687B687F
:1050000004331946104600F0C9F97B681B689B6899
:105010007B617B681B689B693B617B681B681B6AC3
:10502000FB603B681B687A6913437B613B6923F42F
:10503000407323F003033B613B689A683B689B69BC
:105040001B0213433A6913433B613B6923F44063FA
:1050500023F00C033B613B6923F4704323F0F0031E
:105060003B613B68DA683B68DB691B0213433A69C2
:1050700013433B613B681B691A013B681B6A1B03B6
:1050800013433A6913433B61FB6823F02203FB603F
:10509000FB6823F08803FB603B685A683B685B69E8
:1050A0001B011343FA681343FB607B681B687A6932
:1050B0009A607B681B683A699A617B681B68FA682A
:1050C0001A627B68012283F846207B68012283F8FC
:1050D0003E207B68012283F83F207B68012283F811
:1050E00042207B68012283F843207B68012283F8F9
:1050F0003D20002318461837BD4680BD80B584B0DA
:1051000000AF786039607B6893F83E30FB737B6852
:1051100093F83F30BB737B6893F842307B737B68B6
:1051200093F843303B733B68002B10D1FB7B012B82
:1051300002D17B7B012B01D0012369E07B68022235
:1051400083F83E207B68022283F8422031E03B68EE
:10515000042B10D1BB7B012B02D13B7B012B01D057
:10516000012355E07B68022283F83F207B680222FE
:1051700083F843201DE0FB7B012B08D1BB7B012B77
:1051800005D17B7B012B02D13B7B012B01D001237D
:105190003EE07B68022283F83E207B68022283F88F
:1051A0003F207B68022283F842207B68022283F83A
:1051B00043203B68002B03D03B68042B08D00FE052
:1051C0007B681B6801220021184600F03DFB16E0B9
:1051D0007B681B6801220421184600F035FB0EE0B5
:1051E0007B681B6801220021184600F02DFB7B68BC
:1051F0001B6801220421184600F026FB00BF7B68D3
:105200001B681A687B681B6842F001021A60002361
:1052100018461037BD4680BD80B586B000AFF86037
:10522000B9607A600023FB75FB6893F83C30012B72
:1052300001D10223AEE0FB68012283F83C207B68A9
:105240000C2B00F29F8001A252F823F0815200083B
:10525000855300088553000885530008C152000893
:105260008553000885530008855300080353000840
:1052700085530008855300088553000843530008F0
:10528000FB681B68B968184600F02EF9FB681B68BC
:105290009A69FB681B6842F008029A61FB681B6808
:1052A0009A69FB681B6822F004029A61FB681B681C
:1052B0009969BB681A69FB681B680A439A6164E0D4
:1052C000FB681B68B968184600F07EF9FB681B682C
:1052D0009A69FB681B6842F400629A61FB681B686C
:1052E0009A69FB681B6822F480629A61FB681B68FC
:1052F0009969BB681B691A02FB681B680A439A61BB
:1053000043E0FB681B68B968184600F0D3F9FB68F6
:105310001B68DA69FB681B6842F00802DA61FB6807
:105320001B68DA69FB681B6822F00402DA61FB681B
:105330001B68D969BB681A69FB681B680A43DA6194
:1053400023E0FB681B68B968184600F027FAFB6881
:105350001B68DA69FB681B6842F40062DA61FB686B
:105360001B68DA69FB681B6822F48062DA61FB68FB
:105370001B68D969BB681B691A02FB681B680A4372
:10538000DA6102E00123FB7500BFFB68002283F8AD
:105390003C20FB7D18461837BD4680BD80B485B0E3
:1053A00000AF786039607B681B68FB607B68434AAC
:1053B000934213D07B68B3F1804F0FD07B68404A93
:1053C00093420BD07B683F4A934207D07B683E4AAA
:1053D000934203D07B683D4A934208D1FB6823F097
:1053E0007003FB603B685B68FA681343FB607B6893
:1053F000324A93422BD07B68B3F1804F27D07B6831
:105400002F4A934223D07B682E4A93421FD07B6859
:105410002D4A93421BD07B682C4A934217D07B685D
:105420002B4A934213D07B682A4A93420FD07B6861
:10543000294A93420BD07B68284A934207D07B6865
:10544000274A934203D07B68264A934208D1FB68DF
:1054500023F44073FB603B68DB68FA681343FB602E
:10546000FB6823F080023B685B691343FB603B6889
:105470009A687B68DA623B681A687B689A627B6824
:105480000E4A934203D07B68104A934203D13B6893
:105490001A697B681A637B681B6843F004027B68A7
:1054A0001A607B6801225A617B68FA681A6000BF43
:1054B0001437BD465DF8047B704700BF0000014013
:1054C0000004004000080040000C004000040140BF
:1054D00000400140004401400048014000180040E5
:1054E000001C00400020004080B487B000AF78600E
:1054F00039607B681B6A7B617B681B6A23F0010251
:105500007B681A627B685B683B617B689B69FB60B8
:10551000FB6823F07003FB60FB6823F00303FB6070
:105520003B681B68FA681343FB607B6923F0020346
:105530007B613B689B687A6913437B617B68204A87
:10554000934203D07B681F4A93420CD17B6923F0BE
:1055500008037B613B68DB687A6913437B617B6985
:1055600023F004037B617B68154A934203D07B6878
:10557000144A934211D13B6923F480733B613B6928
:1055800023F400733B613B685B693A6913433B61F9
:105590003B689B693A6913433B617B683A695A608F
:1055A0007B68FA689A613B685A687B685A637B68D3
:1055B0007A691A6200BF1C37BD465DF8047B7047EC
:1055C000000001400004014080B487B000AF786063
:1055D00039607B681B6A7B617B681B6A23F0100261
:1055E0007B681A627B685B683B617B689B69FB60D8
:1055F000FB6823F4E043FB60FB6823F44073FB602B
:105600003B681B681B02FA681343FB607B6923F04D
:1056100020037B613B689B681B017A6913437B61B4
:105620007B68224A934203D07B68214A93420DD182
:105630007B6923F080037B613B68DB681B017A692F
:1056400013437B617B6923F040037B617B68174ACE
:10565000934203D07B68164A934213D13B6923F4EB
:1056600080633B613B6923F400633B613B685B699A
:105670009B003A6913433B613B689B699B003A6915
:1056800013433B617B683A695A607B68FA689A61A8
:105690003B685A687B689A637B687A691A6200BFC4
:1056A0001C37BD465DF8047B704700BF0000014019
:1056B0000004014080B487B000AF786039607B6837
:1056C0001B6A7B617B681B6A23F480727B681A62A9
:1056D0007B685B683B617B68DB69FB60FB6823F090
:1056E0007003FB60FB6823F00303FB603B681B68EF
:1056F000FA681343FB607B6923F400737B613B68AA
:105700009B681B027A6913437B617B68214A934241
:1057100003D07B68204A93420DD17B6923F4006358
:105720007B613B68DB681B027A6913437B617B69A1
:1057300023F480637B617B68164A934203D07B68C5
:10574000154A934213D13B6923F480533B613B6973
:1057500023F400533B613B685B691B013A691343C7
:105760003B613B689B691B013A6913433B617B6862
:105770003A695A607B68FA68DA613B685A687B6804
:10578000DA637B687A691A6200BF1C37BD465DF830
:10579000047B7047000001400004014080B487B0E2
:1057A00000AF786039607B681B6A3B617B681B6A6D
:1057B00023F480527B681A627B685B687B617B683C
:1057C000DB69FB60FB6823F4E043FB60FB6823F4C8
:1057D0004073FB603B681B681B02FA681343FB6065
:1057E0003B6923F400533B613B689B681B033A69A8
:1057F00013433B617B68124A934203D07B68114A92
:10580000934209D17B6923F480437B613B685B69E8
:105810009B017A6913437B617B687A695A607B6874
:10582000FA68DA613B685A687B681A647B683A698F
:105830001A6200BF1C37BD465DF8047B704700BF8D
:10584000000001400004014080B487B000AFF86060
:10585000B9607A60BB6803F01F03012202FA03F308
:105860007B61FB681A6A7B69DB431A40FB681A623A
:10587000FB681A6ABB6803F01F03796801FA03F337
:105880001A43FB681A6200BF1C37BD465DF8047BF3
:105890007047000080B485B000AF786039607B68E5
:1058A00093F83C30012B01D102235AE07B6801229E
:1058B00083F83C207B68022283F83D207B681B68CC
:1058C0005B68FB607B681B689B68BB60FB6823F0C0
:1058D0007003FB603B681B68FA681343FB607B68DE
:1058E0001B68FA685A607B681B68214A934222D081
:1058F0007B681B68B3F1804F1DD07B681B681D4A15
:10590000934218D07B681B681B4A934213D07B6874
:105910001B681A4A93420ED07B681B68184A934250
:1059200009D07B681B68174A934204D07B681B68C8
:10593000154A93420CD1BB6823F08003BB603B68DF
:105940005B68BA681343BB607B681B68BA689A607F
:105950007B68012283F83D207B68002283F83C208D
:10596000002318461437BD465DF8047B704700BF1E
:10597000000001400004004000080040000C00400E
:1059800000040140004001400018004080B485B090
:1059900000AF786039600023FB607B6893F83C308F
:1059A000012B01D102233DE07B68012283F83C20DA
:1059B000FB6823F0FF023B68DB681343FB60FB6876
:1059C00023F440723B689B681343FB60FB6823F43D
:1059D00080623B685B681343FB60FB6823F40062F2
:1059E0003B681B681343FB60FB6823F480523B68F1
:1059F0001B691343FB60FB6823F400523B685B693F
:105A00001343FB60FB6823F480423B68DB6913436C
:105A1000FB607B681B68FA685A647B68002283F825
:105A20003C20002318461437BD465DF8047B7047C0
:105A300080B582B000AF78607B68002B01D1012374
:105A400042E07B6893F84130DBB2002B06D17B68E3
:105A5000002283F840207868FCF7EAFC7B68242267
:105A600083F841207B681B68DA687B681B6822F436
:105A70000052DA60786800F073F97B681B681A6975
:105A80007B681B6822F490421A617B681B685A6924
:105A90007B681B6822F02A025A617B681B68DA68FF
:105AA0007B681B6842F40052DA607B6800225A640B
:105AB0007B68202283F841207B68202283F84220E3
:105AC0007B6800225A63002318460837BD4680BD14
:105AD00080B58AB002AFF860B9603B601346FB80C6
